S01B000043656E7472616C2064652053656E736F7265732E73726563E5
S11300000C9475000C9492000C9492000C94920041
S11300100C9492000C9492000C9492000C94920014
S11300200C9492000C9492000C9492000C94920004
S11300300C9492000C9492000C9492000C949200F4
S11300400C9492000C9492000C9492000C949200E4
S11300500C9492000C9492000C9492000C949200D4
S11300600C9492000C94920007634236B79BD8A775
S11300701A39685618AEBAAB558C1D3CB7CC5763C9
S1130080BD6DEDFD753EF6177231BF000000803F77
S113009008000000BE922449123EABAAAA2ABECD93
S11300A0CCCC4C3E00000080BEABAAAAAA3E000005
S11300B00000BF000000803F0000000000084178FD
S11300C0D3BB4387D1133D190E3CC3BD4282AD2B34
S11300D03E68EC8276BED98FE1A93E4C80EFFFBE2C
S11300E001C4FF7F3F000000000011241FBECFEFBA
S11300F0D8E0DEBFCDBF12E0A0E0B1E0EEE0FBE26D
S113010002C005900D92AC3BB107D9F724E0ACEBEB
S1130110B2E001C01D92A13FB207E1F70E94DC08E2
S11301200C9485150C9400001092B90088E4809317
S1130130B80088E691E00E941101089594EA909332
S1130140BC00ECEBF0E090819923ECF79091B900BE
S1130150987F983011F09031A1F48093BB0084E82B
S11301608093BC00ECEBF0E080818823ECF7909165
S1130170B900987F983139F081E0903429F480E017
S1130180089581E0089580E0089584E98093BC0097
S1130190ECEBF0E0808184FDFDCF08958093BB00FB
S11301A084E88093BC00ECEBF0E080818823ECF7DA
S11301B09091B900987F81E0983209F480E0089525
S11301C084EC8093BC00ECEBF0E080818823ECF7B6
S11301D08091BB00089584E88093BC00ECEBF0E0D0
S11301E080818823ECF78091BB0008951092C500AC
S11301F087E68093C400E1ECF0E08081806880832E
S1130200808188618083E2ECF0E080818660808375
S11302100895E0ECF0E0908195FFFDCF8093C60057
S113022008950F931F93CF93FC018081882359F085
S11302308F01C0E00E940901CF5FF801EC0FF11DAE
S113024080818111F7CFCF911F910F9108950E9462
S113025011018DE00E9409018AE00E9409010895BC
S11302601F93CF93DF93CDB7DEB72A970FB6F894D9
S1130270DEBF0FBECDBF122F4A3029F0403159F1F5
S11302804830E1F514C09F938F937F936F938AE76F
S113029091E09F938F93CE0101969F938F930E9439
S11302A09B120FB6F894DEBF0FBECDBF27C09F933D
S11302B08F937F936F938EE791E09F938F93CE01FB
S11302C001969F938F930E949B120FB6F894DEBF02
S11302D00FBECDBF13C09F938F937F936F9384E81A
S11302E091E09F938F93CE0101969F938F930E94E9
S11302F09B120FB6F894DEBF0FBECDBF112329F0B9
S1130300CE0101960E94270104C0CE0101960E94ED
S113031011012A960FB6F894DEBF0FBECDBFDF9150
S1130320CF911F9108952A989EBD0DB407FEFDCF6D
S11303309EB58EBD0DB407FEFDCF8EB580E88EBD93
S11303400DB407FEFDCF8EB581E08EBD0DB407FE62
S1130350FDCF8EB56EBD0DB407FEFDCF8EB52A9AC6
S113036008952A989EBD0DB407FEFDCF9EB58EBD9F
S11303700DB407FEFDCF8EB51EBC0DB407FEFDCF38
S11303808EB581E08EBD0DB407FEFDCF8EB58FEF27
S11303908EBD0DB407FEFDCF8EB52A9A0895AF9297
S11303A0BF92CF92DF92EF92FF920F931F93CF935E
S11303B0DF93C82ED92ED62FC72FA42EB52EE22E0A
S11303C0F32E60E880E090E00E9493010D2F1C2F33
S11303D0C9E0D0E0F80161918F01CE010E94930140
S11303E02196CF30D105B1F70C2D1D2DF801619167
S11303F08F01CE010E9493012196C331D105B1F73B
S11304000A2D1B2DC0E0D0E0F80161918F012196E7
S1130410CE010E949301C430D105B1F70E2D1F2DDA
S1130420C5E0D0E0F80161918F01CE010E949301F3
S11304302196C930D105B1F765E080E090EC0E94C7
S1130440930165E080E090E80E94930181E0DF91F0
S1130450CF911F910F91FF90EF90DF90CF90BF90BD
S1130460AF90089560E181E090E40E94930181E0FF
S113047090E40E94B1018111FACF089568E081E00F
S113048090E40E94930181E090E40E94B101811103
S1130490FACF089583E090E40E94B1018331A9F476
S11304A062E081E090E40E94930181E090E40E9484
S11304B0B1018111FACF83E090E40E94B10184314B
S11304C031F00E94320280E0089580E0089581E0D6
S11304D00895AF92BF92CF92DF92EF92FF920F9363
S11304E01F93CF93DF937C018B01672B09F45CC0CE
S11304F080E290E40E94B101C82FD0E0DC2FCC2729
S113050081E290E40E94B101C80FD11DC017D10748
S113051008F45EC04CC08FE99FE00197F1F700C07A
S1130520000080E290E40E94B10190E0D82FCC2733
S113053081E290E40E94B101FE01E80FF11DCF01B8
S1130540F1E0CF1AD10819F40E943E025DC0801771
S1130550910708F32CC02197C6019770F7016191A8
S11305607F0190580E949301FFEFCF1ADF0A209772
S113057091F70A0D1B1D612F84E290E40E94930100
S1130580602F85E290E40E94930160E281E090E4B0
S11305900E94930181E090E40E94B1018111FACF9D
S11305A0CC24C394D12C30C0C12CD12C2DC084E2D6
S11305B090E40E94B101A82E85E290E40E94B1016A
S11305C0B12CBA2CAA24A80EB11C6501E801C3CF32
S11305D08FE99FE00197F1F700C0000080E290E40A
S11305E00E94B10190E0D82FCC2781E290E40E94D0
S11305F0B101FE01E80FF11DCF010F2EF9EECF2E50
S1130600F3E0DF2EF02DA3CFC601DF91CF911F9130
S11306100F91FF90EF90DF90CF90BF90AF9008952F
S11306208F929F92AF92BF92CF92DF92EF92FF92FE
S11306300F931F93CF93DF935C016B0161157105D9
S113064009F444C06130724078F10F2EFEEFCF2ED2
S1130650DD24D394F02D28C02197C40197709054C1
S11306600E94B101F80181938F01FFEF8F1A9F0A55
S1130670209791F7EC0CFD1CF501EC0DFD1D10828B
S11306806F2D88E290E40E9493016E2D89E290E43C
S11306900E94930160E481E090E40E9493018AE166
S11306A08A95F1F700C012C088E290E40E94B1017B
S11306B0E82E89E290E40E94B101F12CFE2CEE2494
S11306C0E80EF11C4701E6018501C6CF81E090E008
S11306D0DF91CF911F910F91FF90EF90DF90CF901A
S11306E0BF90AF909F908F900895CF9386E290E44F
S11306F00E94B101C82F87E290E40E94B1012C2F1F
S113070030E0322F2227A901480F511DCA01CF9191
S11307100895CF92DF92EF92FF92CF93DF93EC0193
S1130720F62EE72ED42EC52E61E080E090E40E94E0
S113073093016C2D84E090E40E9493016D2D85E07B
S113074090E40E94930168818CE090E40E949301FC
S113075069818DE090E40E9493016A818EE090E4C7
S11307600E9493016B818FE090E40E9493016E2DAF
S113077080E190E40E9493016F2D81E190E40E9456
S1130780930161E081E090E40E94930183E090E4AE
S11307900E94B1018331D1F764E081E090E40E94CA
S11307A0930183E090E40E94B1018731D1F1C12C1F
S11307B0D12C760161E081E090E40E94930183E012
S11307C090E40E94B1018331D1F764E081E090E4C8
S11307D00E9493012FEF80E792E0215080409040E7
S11307E0E1F700C0000083E090E40E94B101C82F4B
S11307F021E04AE0C701B6010E94300124E6C21696
S1130800D104E104F10421F40E943E0280E00AC014
S11308108FEFC81AD80AE80AF80AC73159F687E1EF
S113082001C087E1DF91CF91FF90EF90DF90CF90EF
S11308300895579A5F9A08951092D6021092D5029D
S11308401092D4021092D3021092EE045F988FE3B8
S11308509FE10197F1F700C000005F9A57989AE66C
S11308609A95F1F700C04F9B0CC080E09AE19A95ED
S1130870F1F700C08F5F4F9B05C08830B9F780E067
S1130880089580E0883008F075C04F9BFECF4F99E3
S1130890FECF2FE030E061E070E04F9BFECF4F9B36
S11308A01BC080E09AE09A95F1F700C08F5F4F99E2
S11308B0F9CF803188F08091D5029091D602AB01B6
S11308C0022E02C0440F551F0A94E2F7842B952B85
S11308D09093D6028093D50221503109F0F62FE08F
S11308E030E061E070E04F9BFECF4F9B1BC080E087
S11308F09AE09A95F1F700C08F5F4F99F9CF803154
S113090088F08091D3029091D402AB01022E02C0F0
S1130910440F551F0A94E2F7842B952B9093D4022D
S11309208093D30221503109F0F627E030E061E0F2
S113093070E04F9BFECF4F9B16C080E09AE09A95E3
S1130940F1F700C08F5F4F99F9CF803160F040918B
S1130950EE04CB01022E02C0880F991F0A94E2F71D
S1130960842B8093EE042150310918F7579A5F9A2B
S113097081E0089580E00895CF938093E9020E9476
S113098094008EEE0E949E00C82F882331F088E8E0
S113099091E00E941101C1E047C18AEA0E94CE00A1
S11309A00E94C5008FEE0E949E000E94E0001092FB
S11309B0DB028093DC020E94EB002091DB02309189
S11309C0DC02282B3093DC022093DB020E94C5005A
S11309D08EEE0E949E008CEA0E94CE000E94C5000A
S11309E08FEE0E949E000E94E0001092E30280932A
S11309F0E4020E94EB002091E3023091E402282BF0
S1130A003093E4022093E3020E94C5008EEE0E941C
S1130A109E008EEA0E94CE000E94C5008FEE0E94C6
S1130A209E000E94E0001092EF048093F0040E9464
S1130A30EB002091EF043091F004282B3093F00464
S1130A402093EF040E94C5008EEE0E949E0080EB6E
S1130A500E94CE000E94C5008FEE0E949E000E945C
S1130A60E0001092E7028093E8020E94EB002091DC
S1130A70E7023091E802282B3093E8022093E70242
S1130A800E94C5008EEE0E949E0082EB0E94CE0062
S1130A900E94C5008FEE0E949E000E94E00010920A
S1130AA0E1028093E2020E94EB002091E102309186
S1130AB0E202282B3093E2022093E1020E94C50057
S1130AC08EEE0E949E0084EB0E94CE000E94C50020
S1130AD08FEE0E949E000E94E0001092DF0280933D
S1130AE0E0020E94EB002091DF023091E002282B0B
S1130AF03093E0022093DF020E94C5008EEE0E9434
S1130B009E0086EB0E94CE000E94C5008FEE0E94DC
S1130B109E000E94E0001092DD028093DE020E949B
S1130B20EB002091DD023091DE02282B3093DE02AF
S1130B302093DD020E94C5008EEE0E949E0088EB89
S1130B400E94CE000E94C5008FEE0E949E000E946B
S1130B50E0001092D7028093D8020E94EB0020910B
S1130B60D7023091D802282B3093D8022093D70291
S1130B700E94C5008EEE0E949E008AEB0E94CE0069
S1130B800E94C5008FEE0E949E000E94E000109219
S1130B90D9028093DA020E94EB002091D9023091AD
S1130BA0DA02282B3093DA022093D9020E94C5007E
S1130BB08EEE0E949E008CEB0E94CE000E94C50027
S1130BC08FEE0E949E000E94E0001092EA0480933F
S1130BD0EB040E94EB002091EA043091EB04282BF3
S1130BE03093EB042093EA040E94C5008EEE0E9429
S1130BF09E008EEB0E94CE000E94C5008FEE0E94E4
S1130C009E000E94E0001092E5028093E6020E949A
S1130C10EB002091E5023091E602282B3093E602A6
S1130C202093E5020E94C5008C2FCF910895CF93A5
S1130C30DF938EEE0E949E0084EF0E94CE008EE22F
S1130C400E94CE000E94C5008FE496E40197F1F75C
S1130C5000C000008EEE0E949E0086EF0E94CE002F
S1130C600E94C5008FEE0E949E000E94E000C82FE3
S1130C70D0E0DC2FCC270E94EB009E01282BC90179
S1130C80DF91CF910895CF92DF92EF92FF920F936D
S1130C901F930E941706AC0160E070E08091DF02B0
S1130CA09091E0029A01AB01281B390B41095109CB
S1130CB0A091E102B091E2020E9469126B017C01F1
S1130CC00B2EBFE0F594E794D794C794BA95D1F767
S1130CD0B02D6091EA047091EB04CB01770FAA0B5D
S1130CE0BB0BBC01CD01052E5BE0660F771F881F8F
S1130CF0991F5A95D1F7502D2091E5023091E602C3
S1130D008901330F220B330BA90198012C0D3D1DD2
S1130D104E1D5F1D0E943B12DA01C9018C0D9D1D01
S1130D20AE1DBF1D0896A11DB11D689413F8B5959D
S1130D30A795979587951694D1F71F910F91FF90DA
S1130D40EF90DF90CF900895CF92DF92EF92FF92D1
S1130D50CF938EEE0E949E0084EF0E94CE0080917D
S1130D60E9028295880F880F807C8C5C0E94CE00FB
S1130D700E94C5008091E902813069F028F0823038
S1130D8089F08330B1F01EC08FE496E40197F1F747
S1130D9000C0000017C08FE295E70197F1F700C08B
S1130DA0000010C08FEE92ED0197F1F700C0000033
S1130DB009C09FEB2EE381E0915020408040E1F791
S1130DC000C000008EEE0E949E0086EF0E94CE00BE
S1130DD00E94C5008FEE0E949E000E94E000C82E73
S1130DE0D12CE12CF12C0E94E000C82F0E94EB00D2
S1130DF07601DD24CC24C82A6C2F70E0762F662778
S1130E00CB01770FAA0BBB0B8C299D29AE29BF29D7
S1130E104091E90228E030E0241B3109BC01CD01F6
S1130E2004C096958795779567952A95D2F7CF91C3
S1130E30FF90EF90DF90CF9008954F925F926F9262
S1130E407F928F929F92AF92BF92CF92DF92EF9256
S1130E50FF920F931F93CF93DF93CDB7DEB72897FD
S1130E600FB6F894DEBF0FBECDBF0E9417065C011B
S1130E700E94A40669837A838B839C83A50160E026
S1130E8070E08091DF029091E0029A01AB01281B8F
S1130E90390B41095109A091E102B091E2020E948B
S1130EA069122B013C01032E3FE07594679457941B
S1130EB047943A95D1F7302D6091EA047091EB0490
S1130EC0CB01770FAA0BBB0BBC01CD01052E5BE058
S1130ED0660F771F881F991F5A95D1F7502D2091BF
S1130EE0E5023091E6028901330F220B330BA9018D
S1130EF09801240D351D461D571D0E943B12420EBC
S1130F00531E641E751E20EA421A2FE0520A61081D
S1130F107108A3019201C301B2010E94F5116B0192
S1130F207C010B2EBCE0F594E794D794C794BA9552
S1130F30D1F7B02DE091E902A091EF04B091F00453
S1130F400E9474124B015C01072E7DE0B594A794B6
S1130F50979487947A95D1F7702DA091DD02B09182
S1130F60DE02A70196010E947412BB2797FDB0957B
S1130F70AB2F880D991DAA1DBB1D0296A11DB11D85
S1130F80B595A79597958795B595A79597958795C1
S1130F909C01AD0130584F4F5F4FA091E702B091D3
S1130FA0E8020E9469129B01AC01012E1FE05695D4
S1130FB04795379527951A95D1F7102D2D833E83A4
S1130FC04F835887A091D702B091D802A701960108
S1130FD00E9474124B015C01072E7BE0B594A79428
S1130FE0979487947A95D1F7702DA091E302B091EC
S1130FF0E402A30192010E947412DC01CB01072ECA
S11310007BE0B595A795979587957A95D1F7702D3F
S1131010880D991DAA1DBB1D4091DB025091DC0275
S1131020052E000C660B770B440F551F661F771FA8
S1131030440F551F661F771F840F951FA61FB71FE8
S11310400E2E04C0880F991FAA1FBB1F0A94D2F743
S11310500296A11DB11DAC01BD01BB2324F44D5F5B
S11310605F4F6F4F7F4F759567955795479575956A
S113107067955795479589819A81AB81BC81841B7B
S1131080950BA60BB70B9C01AD0180E593ECA0E09A
S1131090B0E0BC01CD0104C096958795779567951E
S11310A0EA95D2F70E94F51199236CF0660F771F29
S11310B0881F991F2D813E814F8158850E941912E6
S11310C049015A010CC02D813E814F8158850E94EF
S11310D0191249015A01880C991CAA1CBB1C992796
S11310E0B7FC9A958B2D7A2D692D9B01AC010E943A
S11310F0F5119B01AC01AEEDBBE00E9469126B01DE
S11311007C01A3E4B3EEA50194010E947712BB27EE
S113111097FDB095AB2F6701FF24D7FCF094EF2C1B
S11311208C0D9D1DAE1DBF1D8153914FAF4FBF4F01
S1131130689413F8B595A795979587951694D1F764
S1131140BC01CD01680D791D8A1D9B1D28960FB623
S1131150F894DEBF0FBECDBFDF91CF911F910F91E9
S1131160FF90EF90DF90CF90BF90AF909F908F90C3
S11311707F906F905F904F9008950E941D070E948A
S1131180770F20E836EE45EC57E40E94CD0E21E0BF
S11311903EED42E45EE30E9470109B01AC0160E00E
S11311A070E080E89FE30E94600E20E03AE24DE2A6
S11311B057E40E9403100895CF93DF93CDB7DEB7B1
S11311C028970FB6F894DEBF0FBECDBF0E94F6007D
S11311D085EA91E00E94110121E04AE060E875E2AD
S11311E080E090E00E9430010E9419040E941C04D7
S11311F0882309F495C088EB91E00E94270187ECCD
S113120091E00E9411012091D3023091D402ADECFF
S1131210BCEC0E945A12969587959695879596955B
S11312208795BC0180E090E020E04AE00E94300114
S113123085ED91E00E9411014091D3025091D402B6
S11312409A01ADECBCEC0E945A129695879596953E
S11312508795969587959C01220F331F880F991FB8
S1131260880F991F880F991F820F931FBA01681B5B
S1131270790B80E090E020E04AE00E94300187EDA5
S113128091E00E94270189ED91E00E9411012091D3
S1131290D5023091D602ADECBCEC0E945A12969560
S11312A087959695879596958795BC0180E090E003
S11312B020E04AE00E9430018EE20E940901409140
S11312C0D5025091D6029A01ADECBCEC0E945A12A0
S11312D09695879596958795969587959C01220F67
S11312E0331F880F991F880F991F880F991F820F2A
S11312F0931FBA01681B790B80E090E020E04AE07C
S11313000E94300183EE91E00E9427012FEF83ECCD
S113131099E0215080409040E1F700C0000004C0F3
S113132085EE91E00E94270183E00E94BC048111B4
S113133053C0EFEFF3EC29E0E150F0402040E1F737
S113134000C0000083EF91E00E94270183E092E057
S11313500E9411010E941D0720E04AE00E94300112
S11313608EE092E00E94270187EC91E00E94110137
S11313700E9443066AE070E00E940512072E000CEA
S1131380880B990B20E04AE00E94300185ED91E042
S11313900E9411010E9443066AE070E00E94051257
S11313A0BC01990F880B990B20E04AE00E943001A0
S11313B087ED91E00E94270181E192E00E941101F2
S11313C00E94BD080E943F0F20E04AE00E943001C5
S11313D08CE192E00E942701229A2A9A239A259A64
S11313E08CB580618CBD8CB58CBD8CB580648CBD96
S11313F08EE192E00E94270122E531E04AE551E0C6
S113140062E671E08EE591E00E94CF01882321F02D
S11314108BE292E00E942701EEE5F1E083811F92C6
S11314208F9382811F928F9381811F928F938081EA
S11314301F928F938CE392E09F938F938CEB92E0B7
S11314409F938F930E949B120FB6F894DEBF0FBE3A
S1131450CDBF0F2EF2E44F2EF2E05F2EF02D09ECFB
S113146012E00F2EFDE06F2EFAE07F2EF02D0F2EEE
S1131470FAE7AF2EF1E0BF2EF02D0F2EFAE0EF2E9B
S1131480F12CF02DEAEEF2E02E2E3F2EC02ED12EBE
S11314900E941C04409150015091510160E47FE18D
S11314A086E591E00E948903882309F4C2C0AAEE6C
S11314B0B2E00D900020E9F7119786E1E8E4F2E04C
S11314C001900D928A95E1F760E071E0822D932DF1
S11314D00E949012AAEEB2E00D900020E9F7119755
S11314E088E0EEE5F2E001900D928A95E1F74091F3
S11314F0D3025091D402E091D302F091D4029A0124
S1131500ADECBCEC0E945A129695879596958795FA
S1131510969587959C01220F331F880F991F880F7A
S1131520991F880F991F820F931F481B590B5F93B4
S11315304F939F010E945A12969587959695879589
S1131540969587959F938F935F924F921F930F93D6
S11315500E949B126C2D7D2D822D932D0E94901242
S1131560AAEEB2E00D900020E9F711978CE0E6E6D0
S1131570F2E001900D928A95E1F7AAEEB2E00D90A7
S11315800020E9F7119787E0E2E7F2E001900D927D
S11315908A95E1F76CEB72E0822D932D0E949012F4
S11315A0EAEEF2E001900020E9F73197718260825F
S11315B01282AAEEB2E00D900020E9F7119780E2C2
S11315C0E9E7F2E001900D928A95E1F7822D932DDF
S11315D00E942701EAEEF2E001900020E9F731973A
S11315E0BF016A5E7240822D932D0E9469020E949F
S11315F04A020FB6F894DEBF0FBECDBF0E9475033A
S1131600892BE1F30E9475039093ED048093EC041D
S1131610BC01822D932D0E94100389E992E00E945F
S11316202701EAEEF2E01082F80110820E943E02E5
S113163006C08CE992E00E9427010E943E02FFEF5F
S113164027EA81E6F15020408040E1F700C0000025
S1131650409150015091510160E47FE186E591E0B1
S11316600E948903882309F4C2C0AAEEB2E00D9057
S11316700020E9F7119786E1E8E4F2E001900D9289
S11316808A95E1F760E171E0822D932D0E9490121A
S1131690AAEEB2E00D900020E9F7119788E0EEE59C
S11316A0F2E001900D928A95E1F74091D5025091B4
S11316B0D602E091D502F091D6029A01ADECBCECD1
S11316C00E945A1296958795969587959695879533
S11316D09C01220F331F880F991F880F991F880FB1
S11316E0991F820F931F481B590B5F934F939F01C0
S11316F00E945A1296958795969587959695879503
S11317009F938F935F924F921F930F930E949B120C
S11317106C2D7D2D822D932D0E949012AAEEB2E0A5
S11317200D900020E9F711978CE0E6E6F2E00190D5
S11317300D928A95E1F7AAEEB2E00D900020E9F748
S1131740119787E0E2E7F2E001900D928A95E1F7C4
S11317506CEB72E0822D932D0E949012EAEEF2E07F
S113176001900020E9F73197718260821282AAEE1B
S1131770B2E00D900020E9F7119780E2E9E7F2E08A
S113178001900D928A95E1F7822D932D0E942701F5
S1131790EAEEF2E001900020E9F73197BF016A5EBA
S11317A07240822D932D0E9469020E944A020FB654
S11317B0F894DEBF0FBECDBF0E947503892BE1F301
S11317C00E9475039093ED048093EC04BC01822D78
S11317D0932D0E94100389E992E00E942701EAEE0A
S11317E0F2E01082F80110820E943E0206C08CE9E9
S11317F092E00E9427010E943E02FFEF27EA81E661
S1131800F15020408040E1F700C0000040915001B9
S11318105091510160E47FE186E591E00E948903E3
S1131820882309F49BC0AAEEB2E00D900020E9F7EA
S1131830119786E1E8E4F2E001900D928A95E1F7D0
S113184060E271E0822D932D0E949012AAEEB2E024
S11318500D900020E9F7119788E0EEE5F2E00190A1
S11318600D928A95E1F70E941D079F938F937F93B2
S11318706F93BF92AF921F930F930E949B126C2D94
S11318807D2D822D932D0E949012AAEEB2E00D9030
S11318900020E9F711978CE0E6E6F2E001900D9262
S11318A08A95E1F7AAEEB2E00D900020E9F71197CE
S11318B087E0E2E7F2E001900D928A95E1F76CEBA4
S11318C072E0822D932D0E949012EAEEF2E00190D4
S11318D00020E9F73197718260821282AAEEB2E0A9
S11318E00D900020E9F7119780E2E9E7F2E001901A
S11318F00D928A95E1F7822D932D0E942701EAEE3D
S1131900F2E001900020E9F73197BF016A5E72406E
S1131910822D932D0E9469020E944A020FB6F89408
S1131920DEBF0FBECDBF0E947503892BE1F30E9479
S113193075039093ED048093EC04BC01822D932DE8
S11319400E94100389E992E00E942701EAEEF2E086
S11319501082F80110820E943E0206C08CE992E0D7
S11319600E9427010E943E02FFEF27EA81E6F15020
S113197020408040E1F700C00000409150015091A8
S1131980510160E47FE186E591E00E9489038823A8
S113199009F4A7C0AAEEB2E00D900020E9F7119770
S11319A086E1E8E4F2E001900D928A95E1F760E3C4
S11319B071E0822D932D0E949012AAEEB2E00D9058
S11319C00020E9F7119788E0EEE5F2E001900D922E
S11319D08A95E1F70E9443064C010E9443069C014C
S11319E0C401B7010E9405129F938F93C901B701E7
S11319F00E9405127F936F935F924F921F930F93F0
S1131A000E949B126C2D7D2D822D932D0E9490128D
S1131A10AAEEB2E00D900020E9F711978CE0E6E61B
S1131A20F2E001900D928A95E1F7AAEEB2E00D90F2
S1131A300020E9F7119787E0E2E7F2E001900D92C8
S1131A408A95E1F76CEB72E0822D932D0E9490123F
S1131A50EAEEF2E001900020E9F7319771826082AA
S1131A601282AAEEB2E00D900020E9F7119780E20D
S1131A70E9E7F2E001900D928A95E1F7822D932D2A
S1131A800E942701EAEEF2E001900020E9F7319785
S1131A90BF016A5E7240822D932D0E9469020E94EA
S1131AA04A020FB6F894DEBF0FBECDBF0E94750385
S1131AB0892BE1F30E9475039093ED048093EC0469
S1131AC0BC01822D932D0E94100389E992E00E94AB
S1131AD02701EAEEF2E01082F80110820E943E0231
S1131AE006C08CE992E00E9427010E943E02FFEFAB
S1131AF027EA81E6F15020408040E1F700C0000071
S1131B00409150015091510160E47FE186E591E0FC
S1131B100E948903882309F4B5C0AAEEB2E00D90AF
S1131B200020E9F7119786E1E8E4F2E001900D92D4
S1131B308A95E1F760E471E0822D932D0E94901262
S1131B40AAEEB2E00D900020E9F7119788E0EEE5E7
S1131B50F2E001900D928A95E1F70E94BD08698335
S1131B607A838B839C830E94BD086D837E838F83DD
S1131B70988769817A818B819C810E943F0FCB0178
S1131B80B7010E9405129F938F936D817E818F818F
S1131B9098850E943F0F7F936F935F924F921F939C
S1131BA00F930E949B126C2D7D2D822D932D0E94EC
S1131BB09012AAEEB2E00D900020E9F711978CE0A4
S1131BC0E6E6F2E001900D928A95E1F7AAEEB2E022
S1131BD00D900020E9F7119787E0E2E7F2E0019029
S1131BE00D928A95E1F76CEB72E0822D932D0E94A1
S1131BF09012EAEEF2E001900020E9F73197718249
S1131C0060821282AAEEB2E00D900020E9F71197EB
S1131C1080E2E9E7F2E001900D928A95E1F7822DE6
S1131C20932D0E942701EAEEF2E001900020E9F7EB
S1131C303197BF016A5E7240822D932D0E94690222
S1131C400E944A020FB6F894DEBF0FBECDBF0E94B9
S1131C507503892BE1F30E9475039093ED0480933F
S1131C60EC04BC01822D932D0E94100389E992E0BB
S1131C700E942701EAEEF2E01082F80110820E942D
S1131C803E0206C08CE992E00E9427010E943E02B7
S1131C90FFEF27EA81E6F15020408040E1F700C0E1
S1131CA000008091500190915101813A9F4008F4C5
S1131CB0EFCB84E690E09093510180935001E8CB00
S1131CC05058BB27AA270E94780E0C94C90F0E9473
S1131CD0BB0F38F00E94C20F20F039F49F3F19F473
S1131CE026F40C94B80F0EF4E095E7FB0C94B20FB5
S1131CF0E92F0E94DA0F58F3BA17620773078407B3
S1131D00950720F079F4A6F50C94FC0F0EF4E095F9
S1131D100B2EBA2FA02D0B01B90190010C01CA01A1
S1131D20A0011124FF27591B99F0593F50F4503E4C
S1131D3068F11A16F040A22F232F342F4427585F3E
S1131D40F3CF469537952795A795F0405395C9F756
S1131D507EF41F16BA0B620B730B840BBAF091500E
S1131D60A1F0FF0FBB1F661F771F881FC2F70EC0AD
S1131D70BA0F621F731F841F48F487957795679580
S1131D80B795F7959E3F08F0B0CF9395880F08F06C
S1131D909927EE0F9795879508950E94E10E0C946C
S1131DA0C90F0E94C20F58F00E94BB0F40F029F4E3
S1131DB05F3F29F00C94B20F51110C94FD0F0C9459
S1131DC0B80F0E94DA0F68F39923B1F3552391F306
S1131DD0951B550BBB27AA2762177307840738F096
S1131DE09F5F5F4F220F331F441FAA1FA9F335D0F3
S1131DF00E2E3AF0E0E832D091505040E695001CA7
S1131E00CAF72BD0FE2F29D0660F771F881FBB1F60
S1131E10261737074807AB07B0E809F0BB0B802D3E
S1131E20BF01FF2793585F4F3AF09E3F510578F06A
S1131E300C94B20F0C94FD0F5F3FE4F3983ED4F37F
S1131E40869577956795B795F7959F5FC9F7880F3E
S1131E50911D9695879597F90895E1E0660F771F90
S1131E60881FBB1F621773078407BA0720F0621B21
S1131E70730B840BBA0BEE1F88F7E09508950E944C
S1131E80460F6894B1110C94FD0F08950E94E20F5F
S1131E9088F09F5798F0B92F9927B751B0F0E1F027
S1131EA0660F771F881F991F1AF0BA95C9F714C0D7
S1131EB0B13091F00E94FC0FB1E008950C94FC0F36
S1131EC0672F782F8827B85F39F0B93FCCF3869510
S1131ED077956795B395D9F73EF49095809570956D
S1131EE061957F4F8F4F9F4F0895E89409C097FBEA
S1131EF03EF490958095709561957F4F8F4F9F4FDD
S1131F009923A9F0F92F96E9BB279395F695879520
S1131F1077956795B795F111F8CFFAF4BB0F11F4E3
S1131F2060FF1BC06F5F7F4F8F4F9F4F16C088238A
S1131F3011F096E911C0772321F09EE8872F762FC0
S1131F4005C0662371F096E8862F70E060E02AF001
S1131F509A95660F771F881FDAF7880F96958795ED
S1131F6097F9089597F99F6780E870E060E0089515
S1131F709FEF80EC089500240A941616170618069D
S1131F800906089500240A94121613061406050679
S1131F900895092E0394000C11F4882352F0BB0F0A
S1131FA040F4BF2B11F460FF04C06F5F7F4F8F4F6D
S1131FB09F4F089557FD9058440F551F59F05F3FA8
S1131FC071F04795880F97FB991F61F09F3F79F057
S1131FD087950895121613061406551FF2CF4695D9
S1131FE0F1DF08C0161617061806991FF1CF86955B
S1131FF07105610508940895E894BB27662777273F
S1132000CB0197F908950E9416100C94C90F0E94F1
S1132010BB0F38F00E94C20F20F0952311F00C94EE
S1132020B20F0C94B80F11240C94FD0F0E94DA0F18
S113203070F3959FC1F3950F50E0551F629FF00117
S1132040729FBB27F00DB11D639FAA27F00DB11D30
S1132050AA1F649F6627B00DA11D661F829F2227B9
S1132060B00DA11D621F739FB00DA11D621F839F40
S1132070A00D611D221F749F3327A00D611D231F16
S1132080849F600D211D822F762F6A2F11249F5764
S113209050409AF0F1F088234AF0EE0FFF1FBB1F67
S11320A0661F771F881F91505040A9F79E3F510526
S11320B080F00C94B20F0C94FD0F5F3FE4F3983E54
S11320C0D4F3869577956795B795F795E7959F5FD0
S11320D0C1F7FE2B880F911D9695879597F9089562
S11320E0FA01EE0FFF1F309621053105A1F16115AC
S11320F0710561F48038BFE39B0749F16894903817
S1132100810561F08038BFEF9B0741F099234AF5C0
S1132110FF3FE1053105210519F1E8940894E7959D
S1132120D901AA2329F4AB2FBE2FF85FD0F310C036
S1132130FF5F70F4A695E0F7F73950F019F0FF3A15
S113214038F49F779F930DD00F9007FC9058089513
S113215046F00C94B80F60E070E080E89FE30895C7
S11321604FE79F775F934F933F932F930E946B1199
S11321702F913F914F915F910E9403100C94C810CE
S113218029F416F00C94B20F0C94FC0F0C94B80FB5
S11321900E94E20FA8F39638A0F707F80F92E8948C
S11321A02BE33AEA48EB5FE70E9419100F920F9273
S11321B00F924DB75EB70F920E94B311E8E6F0E0BC
S11321C00E94FA104F915F91EF91FF91E595EE1FF8
S11321D0FF1F49F0FE57E0684427EE0F441FFA95AD
S11321E0E1F74195550B0E942D110F9007FE0C94B9
S11321F021110895DF93CF931F930F93FF92EF92D2
S1132200DF927B018C01689406C0DA2EEF010E94F4
S11322101610FE01E894A5912591359145915591AB
S1132220A6F3EF010E94780EFE019701A801DA944B
S113223069F7DF90EF90FF900F911F91CF91DF919D
S113224008959B01AC0160E070E080E89FE30C948A
S1132250CD0E0C94B20F0C94E7110E94E20FD8F348
S11322609923C9F3940F511DA3F39150504094F056
S113227059F0882332F0660F771F881F9150504021
S1132280C1F79E3F51052CF7880F911D96958795B0
S113229097F908955F3FACF0983E9CF0BB27869574
S11322A077956795B79508F4B1609395C1F7BB0F1F
S11322B058F711F460FFE8CF6F5F7F4F8F4F9F4F48
S11322C0E3CF0C94FD0F16F00C94E7110C94B80FA7
S11322D068940C94B20F0E94E20FA8F39923C1F3FF
S11322E0AEF3DF93CF931F930F93FF92C92FDD2794
S11322F088232AF02197660F771F881FDAF720E0DA
S113230030E040E85FEB9FE3883920F0803E38F00E
S113231021968F770E94610EE0E9F0E004C00E94EC
S1132320610EEDEBF0E00E94FA108B01BE01EC01AE
S1132330FB2E6F5771097595771F880B990B0E94B7
S1132340770F28E132E741E35FE30E941610AF2DD7
S11323509801AE01FF900F911F91CF91DF910E94E0
S1132360780E0C94C90FFA01DC01AA0FBB1F9B0164
S1132370AC01BF5728F4222733274427507820C0C4
S1132380B75190F4AB2F0024469537952795011C3F
S1132390A395D2F3002071F0220F331F441FB3958D
S11323A0DAF30ED00C94600E61307105A0E88A0750
S11323B0B94630F49B01AC016627772788279078CB
S11323C0309621F0208331834283538308959F3FC5
S11323D031F0915020F4879577956795B795880FDC
S11323E0911D9695879597F90895DB018F939F9397
S11323F00E946912BF91AF91A29F800D911DA39F6E
S1132400900DB29F900D1124089597FB072E16F49A
S1132410009407D077FD09D00E947C1207FC05D0F8
S11324203EF4909581959F4F0895709561957F4FE7
S11324300895A1E21A2EAA1BBB1BFD010DC0AA1F01
S1132440BB1FEE1FFF1FA217B307E407F50720F019
S1132450A21BB30BE40BF50B661F771F881F991F94
S11324601A9469F760957095809590959B01AC01DD
S1132470BD01CF010895052E97FB1EF400940E9420
S1132480521257FD07D00E94191207FC03D04EF4D4
S11324900C94521250954095309521953F4F4F4FD3
S11324A05F4F089590958095709561957F4F8F4FFC
S11324B09F4F0895A29FB001B39FC001A39F700DC9
S11324C0811D1124911DB29F700D811D1124911D38
S11324D008950E945A12A59F900DB49F900DA49F39
S11324E0800D911D11240895B7FF0C9469120E9468
S11324F06912821B930B0895AA1BBB1B51E107C0F1
S1132500AA1FBB1FA617B70710F0A61BB70B881F7F
S1132510991F5A95A9F780959095BC01CD0108950E
S1132520FB01DC010D900020E9F7119701900D9259
S11325300020E1F70895AEE0B0E0E1EAF2E10C94A6
S11325405C150D891E8986E08C831A8309838FEFBD
S11325509FE79E838D83AE01475E5F4F6F89788DC1
S1132560CE0101960E94BD12EF81F885E00FF11FA4
S113257010822E96E4E00C947815ABE0B0E0E3EC26
S1132580F2E10C944E156C017B018A01FC01178267
S11325901682838181FFCCC1CE0101963C01F601F4
S11325A09381F70193FD859193FF81917F018823A6
S11325B009F4BAC1853239F493FD859193FF819171
S11325C07F01853229F4B60190E00E94B414E7CF6C
S11325D0912C212C312CFFE1F315D8F08B3279F0BA
S11325E038F4803279F08332A1F4232D20611DC0A8
S11325F08D3261F0803369F4232D216016C0832D60
S11326008260382EE32DE4603E2E2AC0F32DF8605C
S11326101DC037FC2DC020ED280F2A3040F08E322B
S1132620B9F436FC81C1232D2064322E19C036FE44
S113263006C08AE0989E200D1124922E11C0EAE073
S11326402E9E200D1124222EF32DF0623F2E08C061
S11326508C3621F4832D8068382E02C0883641F4EC
S1132660F70193FD859193FF81917F018111B3CF90
S1132670982F9F7D9554933028F40C5F1F4F9FE350
S113268099830DC0833631F0833771F0833509F0B7
S113269059C021C0F801808189830E5F1F4F8824AF
S11326A08394912C530113C02801F2E04F0E511C66
S11326B0F801A080B18036FE03C0692D70E002C02D
S11326C06FEF7FEFC5010E94A9144C018201F32D25
S11326D0FF773F2E16C0280122E0420E511CF8015C
S11326E0A080B18036FE03C0692D70E002C06FEF98
S11326F07FEFC5010E949E144C01F32DF0683F2E1C
S1132700820133FC1BC0822D90E088169906B0F438
S1132710B60180E290E00E94B4142A94F4CFF5014B
S113272037FC859137FE81915F01B60190E00E94EC
S1132730B41421102A9421E0821A9108811491047E
S113274071F7E8C0843611F0893641F5F80137FE97
S113275007C060817181828193810C5F1F4F08C023
S113276060817181072E000C880B990B0E5F1F4F3F
S1132770F32DFF763F2E97FF09C0909580957095B5
S113278061957F4F8F4F9F4FF0683F2E2AE030E0D6
S1132790A3010E94F014882E861845C0853731F4B1
S11327A0232D2F7EB22E2AE030E025C0932D997F71
S11327B0B92E8F36C1F018F4883579F0B5C080375A
S11327C019F0883721F0B0C0E92FE061BE2EB4FEC5
S11327D00DC0FB2DF460BF2E09C034FE0AC0292FA2
S11327E02660B22E06C028E030E005C020E130E0CB
S11327F002C020E132E0F801B7FE07C060817181B8
S1132800828193810C5F1F4F06C06081718180E0DB
S113281090E00E5F1F4FA3010E94F014882E8618CB
S1132820FB2DFF773F2E36FE0DC0232D2E7FA22ECB
S1132830891458F434FE0BC032FC09C0832D8E7EFB
S1132840A82E05C0B82CA32C03C0B82C01C0B92CE9
S1132850A4FE0FC0FE01E80DF11D8081803321F438
S11328609A2D997EA92E09C0A2FE06C0B394B394F2
S113287004C08A2D867809F0B394A3FC11C0A0FE8D
S113288006C0B21488F4280C922C9B180EC0B21403
S113289060F4B60180E290E00E94B414B394F7CFE0
S11328A0B21418F42B1802C0982C212CA4FE10C0CA
S11328B0B60180E390E00E94B414A2FE17C0A1FC0C
S11328C003C088E790E002C088E590E0B6010CC040
S11328D08A2D867859F0A1FE02C08BE201C080E205
S11328E0A7FC8DE2B60190E00E94B414891438F478
S11328F0B60180E390E00E94B4149A94F7CF8A94CE
S1132900F301E80DF11D8081B60190E00E94B4143A
S11329108110F5CF222009F442CEB60180E290E086
S11329200E94B4142A94F6CFF6018681978102C0DE
S11329308FEF9FEF2B96E2E10C946A15FC01059052
S1132940615070400110D8F7809590958E0F9F1FAD
S11329500895FC016150704001900110D8F78095F2
S113296090958E0F9F1F08950F931F93CF93DF931E
S1132970FB01238121FD03C08FEF9FEF2CC022FFB9
S113298016C046815781248135814217530744F488
S1132990A081B1819D012F5F3F4F318320838C93B0
S11329A0268137812F5F3F4F3783268314C08B01E5
S11329B0EC01FB010084F185E02D0995892BE1F6FA
S11329C0D80116968D919C911797019617969C9312
S11329D08E931697CE01DF91CF911F910F91089599
S11329E0FA01AA27283051F1203181F1E8946F933C
S11329F06E7F6E5F7F4F8F4F9F4FAF4FB1E03ED0E2
S1132A00B4E03CD0670F781F891F9A1FA11D680F7F
S1132A10791F8A1F911DA11D6A0F711D811D911DB2
S1132A20A11D20D009F468943F912AE0269F112427
S1132A303019305D3193DEF6CF010895462F47708B
S1132A40405D4193B3E00FD0C9F7F6CF462F4F70E6
S1132A50405D4A3318F0495D31FD4052419302D044
S1132A60A9F7EACFB4E0A6959795879577956795EA
S1132A70BA95C9F700976105710508959B01AC01EA
S1132A800A2E06945795479537952795BA95C9F711
S1132A90620F731F841F951FA01D08952F923F92EC
S1132AA04F925F926F927F928F929F92AF92BF925A
S1132AB0CF92DF92EF92FF920F931F93CF93DF9306
S1132AC0CDB7DEB7CA1BDB0B0FB6F894DEBF0FBE63
S1132AD0CDBF09942A88398848885F846E847D84B0
S1132AE08C849B84AA84B984C884DF80EE80FD80B2
S1132AF00C811B81AA81B981CE0FD11D0FB6F89428
S1112B00DEBF0FBECDBFED010895F894FFCFE8
S1132B0E3561363630343535396233663338000044
S1132B1E35613636303437366365633838390000FC
S1132B2E356136363034383431633632363130002E
S1132B3E3561363630343937363361333931310015
S1132B4E3561363630353535373662323631320008
S1132B5E901FFFFFFF000A0164C80A0164C80A013E
S1132B6E64714822221000400A49324320496E699A
S1132B7E7469616C697A65640A00256C6400307846
S1132B8E256C6F00256C58000A416464726573737A
S1132B9E207265676973746572696E672066616910
S1132BAE6C65640A0053657269616C20496E6963D1
S1132BBE6961646120402000444854323220696EB9
S1132BCE69636961646F0054656D706572617475D3
S1132BDE72613A20002E004300556D69646164658C
S1132BEE3A200025004552524F204E4F204448545F
S1132BFE323200424D5030383520496E6963696176
S1132C0E646F005072657373C3A36F3A20005061F2
S1132C1E00416C7469747564653A20006D005350FC
S1132C2E4920696E69636961646F0057495A353288
S1132C3E303020696E69636961646F0025642E25E6
S1132C4E642E25642E256400504F5354202F41507A
S1132C5E492F6461646F732F7265616C2F003F7628
S1132C6E616C6F723D0020485454502F312E310D3B
S1132C7E0A00486F73743A2000557365722D4167CC
S1132C8E656E743A2043656E7472616C53656E732F
S1132C9E6F7265730D0A0D0A006F6B004572726FC9
S1132CAE20646520636F6E6578C3A36F20656D2005
S10F2CBE6578656375C3A7C3A36F0000AD
S9030000FC
