:100000000C9434000C9451000C9451000C94510049
:100010000C9451000C9451000C9451000C9451001C
:100020000C9451000C9451000C9451000C9451000C
:100030000C9451000C9451000C9451000C945100FC
:100040000C9451000C9451000C9451000C945100EC
:100050000C9451000C9451000C9451000C945100DC
:100060000C9451000C94510011241FBECFEFD8E026
:10007000DEBFCDBF12E0A0E0B1E0E6E7FBE102C0E9
:1000800005900D92AC37B107D9F724E0ACE7B2E0A8
:1000900001C01D92A839B207E1F70E941B080C9419
:1000A000B90D0C9400001092B90088E48093B80058
:1000B00088E191E00E94D000089594EA9093BC00FA
:1000C000ECEBF0E090819923ECF79091B900987FE8
:1000D000983011F09031A1F48093BB0084E88093B4
:1000E000BC00ECEBF0E080818823ECF79091B90044
:1000F000987F983139F081E0903429F480E00895B8
:1001000081E0089580E0089584E98093BC00ECEBE1
:10011000F0E0808184FDFDCF08958093BB0084E8EA
:100120008093BC00ECEBF0E080818823ECF79091A9
:10013000B900987F81E0983209F480E0089584EC5A
:100140008093BC00ECEBF0E080818823ECF7809199
:10015000BB00089584E88093BC00ECEBF0E0808164
:100160008823ECF78091BB0008951092C50087E6C4
:100170008093C400E1ECF0E080818068808380811E
:1001800088618083E2ECF0E080818660808308955E
:10019000E0ECF0E0908195FFFDCF8093C6000895DC
:1001A0000F931F93CF93FC018081882359F08F0117
:1001B000C0E00E94C800CF5FF801EC0FF11D808104
:1001C0008111F7CFCF911F910F9108950E94D00018
:1001D0008DE00E94C8008AE00E94C80008951F9325
:1001E000CF93DF93CDB7DEB72A970FB6F894DEBF73
:1001F0000FBECDBF122F4A3029F0403159F148309F
:10020000E1F514C09F938F937F936F938AE291E0FF
:100210009F938F93CE0101969F938F930E94CF0A55
:100220000FB6F894DEBF0FBECDBF27C09F938F934C
:100230007F936F938EE291E09F938F93CE0101960F
:100240009F938F930E94CF0A0FB6F894DEBF0FBE24
:10025000CDBF13C09F938F937F936F9384E391E0FF
:100260009F938F93CE0101969F938F930E94CF0A05
:100270000FB6F894DEBF0FBECDBF112329F0CE011B
:1002800001960E94E60004C0CE0101960E94D000B3
:100290002A960FB6F894DEBF0FBECDBFDF91CF9187
:1002A0001F9108952A989EBD0DB407FEFDCF9EB5FF
:1002B0008EBD0DB407FEFDCF8EB580E88EBD0DB4AA
:1002C00007FEFDCF8EB581E08EBD0DB407FEFDCFDC
:1002D0008EB56EBD0DB407FEFDCF8EB52A9A08957A
:1002E0002A989EBD0DB407FEFDCF9EB58EBD0DB400
:1002F00007FEFDCF8EB51EBC0DB407FEFDCF8EB53B
:1003000081E08EBD0DB407FEFDCF8EB58FEF8EBDA3
:100310000DB407FEFDCF8EB52A9A0895AF92BF9215
:10032000CF92DF92EF92FF920F931F93CF93DF93C1
:10033000C82ED92ED62FC72FA42EB52EE22EF32EDF
:1003400060E880E090E00E9452010D2F1C2FC9E070
:10035000D0E0F80161918F01CE010E9452012196F7
:10036000CF30D105B1F70C2D1D2DF80161918F0112
:10037000CE010E9452012196C331D105B1F70A2D59
:100380001B2DC0E0D0E0F80161918F012196CE01D4
:100390000E945201C430D105B1F70E2D1F2DC5E0CA
:1003A000D0E0F80161918F01CE010E9452012196A7
:1003B000C930D105B1F765E080E090EC0E945201B0
:1003C00065E080E090E80E94520181E0DF91CF91EA
:1003D0001F910F91FF90EF90DF90CF90BF90AF9063
:1003E000089560E181E090E40E94520181E090E490
:1003F0000E9470018111FACF089568E081E090E4D5
:100400000E94520181E090E40E9470018111FACFB4
:10041000089583E090E40E9470018331A9F462E0C2
:1004200081E090E40E94520181E090E40E9470011A
:100430008111FACF83E090E40E947001843131F0A1
:100440000E94F10180E0089580E0089581E0089520
:10045000AF92BF92CF92DF92EF92FF920F931F93D2
:10046000CF93DF937C018B01672B09F45CC080E2A2
:1004700090E40E947001C82FD0E0DC2FCC2781E2ED
:1004800090E40E947001C80FD11DC017D10708F475
:100490005EC04CC08FE99FE00197F1F700C00000FB
:1004A00080E290E40E94700190E0D82FCC2781E296
:1004B00090E40E947001FE01E80FF11DCF01F1E010
:1004C000CF1AD10819F40E94FD015DC08017910771
:1004D00008F32CC02197C6019770F70161917F0145
:1004E00090580E945201FFEFCF1ADF0A209791F730
:1004F0000A0D1B1D612F84E290E40E945201602FBF
:1005000085E290E40E94520160E281E090E40E9462
:10051000520181E090E40E9470018111FACFCC2455
:10052000C394D12C30C0C12CD12C2DC084E290E4D6
:100530000E947001A82E85E290E40E947001B12C07
:10054000BA2CAA24A80EB11C6501E801C3CF8FE91B
:100550009FE00197F1F700C0000080E290E40E9464
:10056000700190E0D82FCC2781E290E40E947001C6
:10057000FE01E80FF11DCF010F2EF9EECF2EF3E0B3
:10058000DF2EF02DA3CFC601DF91CF911F910F91E8
:10059000FF90EF90DF90CF90BF90AF9008958F9233
:1005A0009F92AF92BF92CF92DF92EF92FF920F9302
:1005B0001F93CF93DF935C016B016115710509F403
:1005C00044C06130724078F10F2EFEEFCF2EDD2453
:1005D000D394F02D28C02197C401977090540E94A5
:1005E0007001F80181938F01FFEF8F1A9F0A209706
:1005F00091F7EC0CFD1CF501EC0DFD1D10826F2D2B
:1006000088E290E40E9452016E2D89E290E40E94FB
:10061000520160E481E090E40E9452018AE18A95EF
:10062000F1F700C012C088E290E40E947001E82E49
:1006300089E290E40E947001F12CFE2CEE24E80E79
:10064000F11C4701E6018501C6CF81E090E0DF9112
:10065000CF911F910F91FF90EF90DF90CF90BF90BF
:10066000AF909F908F900895CF9386E290E40E9480
:100670007001C82F87E290E40E9470012C2F30E0B7
:10068000322F2227A901480F511DCA01CF91089589
:10069000CF92DF92EF92FF92CF93DF93EC01F62E91
:1006A000E72ED42EC52E61E080E090E40E94520136
:1006B0006C2D84E090E40E9452016D2D85E090E461
:1006C0000E94520168818CE090E40E94520169818D
:1006D0008DE090E40E9452016A818EE090E40E94D5
:1006E00052016B818FE090E40E9452016E2D80E1F7
:1006F00090E40E9452016F2D81E190E40E9452012A
:1007000061E081E090E40E94520183E090E40E9465
:1007100070018331D1F764E081E090E40E945201DE
:1007200083E090E40E9470018731D1F1C12CD12C7B
:10073000760161E081E090E40E94520183E090E460
:100740000E9470018331D1F764E081E090E40E945F
:1007500052012FEF81EE94E0215080409040E1F76C
:1007600000C0000083E090E40E947001C82F21E0E7
:100770004AE0C701B6010E94EF0024E6C216D10488
:10078000E104F10421F40E94FD0180E00AC08FEF32
:10079000C81AD80AE80AF80AC73159F687E101C031
:1007A00087E1DF91CF91FF90EF90DF90CF90089598
:1007B000579A5F9A089510927F0210927E021092CB
:1007C0007D0210927C02109295045F988FE39FE166
:1007D0000197F1F700C000005F9A57989AE69A9542
:1007E000F1F700C04F9B0CC080E09AE19A95F1F7B9
:1007F00000C08F5F4F9B05C08830B9F780E0089537
:1008000080E0883008F075C04F9BFECF4F99FECF37
:100810002FE030E061E070E04F9BFECF4F9B1BC0AC
:1008200080E09AE09A95F1F700C08F5F4F99F9CF79
:10083000803188F080917E0290917F02AB01022E80
:1008400002C0440F551F0A94E2F7842B952B909316
:100850007F0280937E0221503109F0F62FE030E0D4
:1008600061E070E04F9BFECF4F9B1BC080E09AE0A1
:100870009A95F1F700C08F5F4F99F9CF803188F0DA
:1008800080917C0290917D02AB01022E02C0440F48
:10089000551F0A94E2F7842B952B90937D02809349
:1008A0007C0221503109F0F627E030E061E070E091
:1008B0004F9BFECF4F9B16C080E09AE09A95F1F7D0
:1008C00000C08F5F4F99F9CF803160F0409195045F
:1008D000CB01022E02C0880F991F0A94E2F7842BE5
:1008E000809395042150310918F7579A5F9A81E057
:1008F000089580E00895CF93809392020E94530060
:100900008EEE0E945D00C82F882331F088E391E0CD
:100910000E94D000C1E047C18AEA0E948D000E9477
:1009200084008FEE0E945D000E949F00109284025E
:10093000809385020E94AA00209184023091850252
:10094000282B30938502209384020E9484008EEE2F
:100950000E945D008CEA0E948D000E9484008FEE50
:100960000E945D000E949F0010928C0280938D0275
:100970000E94AA0020918C0230918D02282B309386
:100980008D0220938C020E9484008EEE0E945D00F6
:100990008EEA0E948D000E9484008FEE0E945D000E
:1009A0000E949F0010929604809397040E94AA00D0
:1009B0002091960430919704282B3093970420932C
:1009C00096040E9484008EEE0E945D0080EB0E94DF
:1009D0008D000E9484008FEE0E945D000E949F00A7
:1009E00010929002809391020E94AA00209190029E
:1009F00030919102282B30939102209390020E9413
:100A000084008EEE0E945D0082EB0E948D000E94A9
:100A100084008FEE0E945D000E949F0010928A0267
:100A200080938B020E94AA0020918A0230918B024F
:100A3000282B30938B0220938A020E9484008EEE32
:100A40000E945D0084EB0E948D000E9484008FEE66
:100A50000E945D000E949F0010928802809389028C
:100A60000E94AA002091880230918902282B30939D
:100A70008902209388020E9484008EEE0E945D000D
:100A800086EB0E948D000E9484008FEE0E945D0024
:100A90000E949F0010928602809387020E94AA0003
:100AA0002091860230918702282B30938702209371
:100AB00086020E9484008EEE0E945D0088EB0E94F8
:100AC0008D000E9484008FEE0E945D000E949F00B6
:100AD00010928002809381020E94AA0020918002DD
:100AE00030918102282B30938102209380020E9452
:100AF00084008EEE0E945D008AEB0E948D000E94B1
:100B000084008FEE0E945D000E949F00109282027E
:100B1000809383020E94AA00209182023091830276
:100B2000282B30938302209382020E9484008EEE51
:100B30000E945D008CEB0E948D000E9484008FEE6D
:100B40000E945D000E949F00109293048093940481
:100B50000E94AA002091930430919404282B309392
:100B60009404209393040E9484008EEE0E945D0002
:100B70008EEB0E948D000E9484008FEE0E945D002B
:100B80000E949F0010928E0280938F020E94AA0002
:100B900020918E0230918F02282B30938F02209368
:100BA0008E020E9484008C2FCF910895CF93DF9303
:100BB0008EEE0E945D0084EF0E948D008EE20E9406
:100BC0008D000E9484008FE496E40197F1F700C045
:100BD00000008EEE0E945D0086EF0E948D000E9454
:100BE00084008FEE0E945D000E949F00C82FD0E01D
:100BF000DC2FCC270E94AA009E01282BC901DF917F
:100C0000CF910895CF92DF92EF92FF92CF938EEE25
:100C10000E945D0084EF0E948D0080919202829577
:100C2000880F880F807C8C5C0E948D000E9484005D
:100C300080919202813069F028F0823089F083300F
:100C4000B1F01EC08FE496E40197F1F700C00000F8
:100C500017C08FE295E70197F1F700C0000010C0C0
:100C60008FEE92ED0197F1F700C0000009C09FEBF5
:100C70002EE381E0915020408040E1F700C0000069
:100C80008EEE0E945D0086EF0E948D000E9484001F
:100C90008FEE0E945D000E949F00C82ED12CE12C97
:100CA000F12C0E949F00C82F0E94AA007601DD242B
:100CB000CC24C82A6C2F70E0762F6627CB01770FE3
:100CC000AA0BBB0B8C299D29AE29BF29409192020A
:100CD00028E030E0241B3109BC01CD0104C0969509
:100CE0008795779567952A95D2F7CF91FF90EF90EA
:100CF000DF90CF9008954F925F926F927F928F9284
:100D00009F92AF92BF92CF92DF92EF92FF920F939A
:100D10001F93CF93DF93CDB7DEB728970FB6F89424
:100D2000DEBF0FBECDBF0E94D6055C010E94020649
:100D300069837A838B839C83A50160E070E0809156
:100D40008802909189029A01AB01281B390B410955
:100D50005109A0918A02B0918B020E94B10A2B0125
:100D60003C01032E3FE075946794579447943A955D
:100D7000D1F7302D6091930470919404CB01770FDB
:100D8000AA0BBB0BBC01CD01052E5BE0660F771FE4
:100D9000881F991F5A95D1F7502D20918E023091BE
:100DA0008F028901330F220B330BA9019801240D07
:100DB000351D461D571D0E94830A420E531E641E98
:100DC000751E20EA421A2FE0520A61087108A30139
:100DD0009201C301B2010E94510A6B017C010B2EEA
:100DE000BCE0F594E794D794C794BA95D1F7B02DA9
:100DF000E0919202A0919604B09197040E94BC0ADF
:100E00004B015C01072E7DE0B594A79497948794DD
:100E10007A95D1F7702DA0918602B0918702A70133
:100E200096010E94BC0ABB2797FDB095AB2F880D99
:100E3000991DAA1DBB1D0296A11DB11DB595A795B3
:100E400097958795B595A795979587959C01AD0141
:100E500030584F4F5F4FA0919002B09191020E9485
:100E6000B10A9B01AC01012E1FE0569547953795BD
:100E700027951A95D1F7102D2D833E834F835887E0
:100E8000A0918002B0918102A70196010E94BC0A44
:100E90004B015C01072E7BE0B594A794979487944F
:100EA0007A95D1F7702DA0918C02B0918D02A3019B
:100EB00092010E94BC0ADC01CB01072E7BE0B595B4
:100EC000A795979587957A95D1F7702D880D991DDF
:100ED000AA1DBB1D4091840250918502052E000C75
:100EE000660B770B440F551F661F771F440F551F66
:100EF000661F771F840F951FA61FB71F0E2E04C0F5
:100F0000880F991FAA1FBB1F0A94D2F70296A11D32
:100F1000B11DAC01BD01BB2324F44D5F5F4F6F4F8A
:100F20007F4F759567955795479575956795579533
:100F3000479589819A81AB81BC81841B950BA60B57
:100F4000B70B9C01AD0180E593ECA0E0B0E0BC01E3
:100F5000CD0104C09695879577956795EA95D2F768
:100F60000E94510A99236CF0660F771F881F991F02
:100F70002D813E814F8158850E94610A49015A01A5
:100F80000CC02D813E814F8158850E94610A490124
:100F90005A01880C991CAA1CBB1C9927B7FC9A956E
:100FA0008B2D7A2D692D9B01AC010E94510A9B016A
:100FB000AC01AEEDBBE00E94B10A6B017C01A3E481
:100FC000B3EEA50194010E94BF0ABB2797FDB0951F
:100FD000AB2F6701FF24D7FCF094EF2C8C0D9D1DE7
:100FE000AE1DBF1D8153914FAF4FBF4F689413F893
:100FF000B595A795979587951694D1F7BC01CD0126
:10100000680D791D8A1D9B1D28960FB6F894DEBFCA
:101010000FBECDBFDF91CF911F910F91FF90EF9049
:10102000DF90CF90BF90AF909F908F907F906F9008
:101030005F904F900895CF93DF93CDB7DEB72A9797
:101040000FB6F894DEBF0FBECDBF0E94B50085E598
:1010500091E00E94D00021E04AE060E875E280E083
:1010600090E00E94EF0083E00E947B040E94D8037E
:101070000E94DB03882309F494C088E691E00E9473
:10108000E60087E791E00E94D00020917C02309139
:101090007D02ADECBCEC0E94A20A969587959695D0
:1010A000879596958795BC0180E090E020E04AE026
:1010B0000E94EF008EE20E94C80040917C02509195
:1010C0007D029A01ADECBCEC0E94A20A9695879530
:1010D00096958795969587959C01220F331F880FCB
:1010E000991F880F991F880F991F820F931FBA01AC
:1010F000681B790B80E090E020E04AE00E94EF005E
:1011000085E891E00E94E60087E891E00E94D00027
:1011100020917E0230917F02ADECBCEC0E94A20ACD
:10112000969587959695879596958795BC0180E0CD
:1011300090E020E04AE00E94EF008EE20E94C800AA
:1011400040917E0250917F029A01ADECBCEC0E946E
:10115000A20A9695879596958795969587959C0171
:10116000220F331F880F991F880F991F880F991F0F
:10117000820F931FBA01681B790B80E090E020E09A
:101180004AE00E94EF0085E891E00E94E6002FEF20
:1011900087EA91E6215080409040E1F700C00000CE
:1011A00004C081E991E00E94E600229A2A9A239ADB
:1011B000259A8CB580618CBD8CB58CBD8CB5806456
:1011C0008CBD8FE991E00E94E60022E031E04AE028
:1011D00051E062E171E08EE091E00E948E0188238F
:1011E00021F08CEA91E00E94E60003E912E06894A5
:1011F000552453F84E01E3E08E0E911C0F2EF8EEAD
:10120000AF2EF1E0BF2EF02DCE0101967C010F2E06
:10121000FAE2CF2EF1E0DF2EF02D602E712E482E57
:101220003F2C0E94DB03409100015091010160E4DA
:101230007FE186E091E00E944803882309F413C10E
:10124000D8010D900020E9F711978BE2EDEBF1E06A
:1012500001900D928A95E1F71A821982F401252DE9
:1012600011922A95E9F740917C0250917D02E0911C
:101270007C02F0917D029A01ADECBCEC0E94A20AC6
:101280009695879596958795969587959C01220FBB
:10129000331F880F991F880F991F880F991F820F7E
:1012A000931F481B590B5F934F939F010E94A20A03
:1012B0009695879596958795969587959F938F9305
:1012C000BF92AF92FF92EF920E94CF0A642D732DCE
:1012D000862D972D0E94C40AD8010D900020E9F7B1
:1012E00011978CE0EEEEF1E001900D928A95E1F716
:1012F000D8010D900020E9F7119785E1EAEFF1E0C0
:1013000001900D928A95E1F7D8010D900020E9F740
:10131000119780E2EFE0F2E001900D928A95E1F7FB
:10132000862D972D0E94E600F80101900020E9F734
:101330003197BF0163597240862D972D0E94280274
:101340000E9409020FB6F894DEBF0FBECDBF0E9407
:101350003403892BE1F30E943403BC01862D972DC1
:101360000E94CF028FE292E00E94E600F801108214
:1013700019820E94FD01409100015091010160E439
:101380007FE186E091E00E944803D8010D900020A3
:10139000E9F711978BE2E2E3F2E001900D928A9572
:1013A000E1F70E947B069F938F937F936F93DF9269
:1013B000CF92FF92EF920E94CF0A642D732D862D5B
:1013C000972D0E94C40AD8010D900020E9F71197CB
:1013D0008CE0EEEEF1E001900D928A95E1F7D801F4
:1013E0000D900020E9F7119785E1EAEFF1E0019017
:1013F0000D928A95E1F7D8010D900020E9F7119739
:1014000080E2EFE0F2E001900D928A95E1F7862DFF
:10141000972D0E94E600F80101900020E9F731972E
:10142000BF0163597240862D972D0E9428020E94A9
:1014300009020FB6F894DEBF0FBECDBF0E94340381
:10144000892BE1F30E943403BC01862D972D0E9465
:10145000CF028FE292E00E94E600F801108219822A
:101460000E94FD0106C08DE592E00E94E6000E9408
:10147000FD01FFEF23E284EFF15020408040E1F7CF
:1014800000C000008091000190910101813A9F40CD
:1014900008F4C7CE84E690E09093010180930001A8
:1014A000C0CEDB018F939F930E94B10ABF91AF9191
:1014B000A29F800D911DA39F900DB29F900D1124AE
:1014C0000895A1E21A2EAA1BBB1BFD010DC0AA1F85
:1014D000BB1FEE1FFF1FA217B307E407F50720F09D
:1014E000A21BB30BE40BF50B661F771F881F991F18
:1014F0001A9469F760957095809590959B01AC0161
:10150000BD01CF010895052E97FB1EF400940E94A3
:101510009A0A57FD07D00E94610A07FC03D04EF4D7
:101520000C949A0A50954095309521953F4F4F4F16
:101530005F4F089590958095709561957F4F8F4F7F
:101540009F4F0895A29FB001B39FC001A39F700D4C
:10155000811D1124911DB29F700D811D1124911DBB
:1015600008950E94A20AA59F900DB49F900DA49F7C
:10157000800D911D11240895B7FF0C94B10A0E94AB
:10158000B10A821B930B0895FB01DC010D90002032
:10159000E9F7119701900D920020E1F70895AEE070
:1015A000B0E0E5EDFAE00C94900D0D891E8986E01F
:1015B0008C831A8309838FEF9FE79E838D83AE010F
:1015C000475E5F4F6F89788DCE0101960E94F10AC8
:1015D000EF81F885E00FF11F10822E96E4E00C9465
:1015E000AC0DABE0B0E0E7EFFAE00C94820D6C01DB
:1015F0007B018A01FC0117821682838181FFCCC1A5
:10160000CE0101963C01F6019381F70193FD85918E
:1016100093FF81917F01882309F4BAC1853239F49F
:1016200093FD859193FF81917F01853229F4B60165
:1016300090E00E94E80CE7CF912C212C312CFFE1A7
:10164000F315D8F08B3279F038F4803279F08332A8
:10165000A1F4232D20611DC08D3261F0803369F427
:10166000232D216016C0832D8260382EE32DE46087
:101670003E2E2AC0F32DF8601DC037FC2DC020ED92
:10168000280F2A3040F08E32B9F436FC81C1232D68
:101690002064322E19C036FE06C08AE0989E200DC6
:1016A0001124922E11C0EAE02E9E200D1124222E2C
:1016B000F32DF0623F2E08C08C3621F4832D806814
:1016C000382E02C0883641F4F70193FD859193FFCF
:1016D00081917F018111B3CF982F9F7D95549330D5
:1016E00028F40C5F1F4F9FE399830DC0833631F0C0
:1016F000833771F0833509F059C021C0F80180812A
:1017000089830E5F1F4F88248394912C530113C04B
:101710002801F2E04F0E511CF801A080B18036FE86
:1017200003C0692D70E002C06FEF7FEFC5010E941A
:10173000DD0C4C018201F32DFF773F2E16C02801EE
:1017400022E0420E511CF801A080B18036FE03C099
:10175000692D70E002C06FEF7FEFC5010E94D20CCF
:101760004C01F32DF0683F2E820133FC1BC0822D0B
:1017700090E088169906B0F4B60180E290E00E94ED
:10178000E80C2A94F4CFF50137FC859137FE81915E
:101790005F01B60190E00E94E80C21102A9421E03C
:1017A000821A91088114910471F7E8C0843611F00F
:1017B000893641F5F80137FE07C060817181828169
:1017C00093810C5F1F4F08C060817181072E000C50
:1017D000880B990B0E5F1F4FF32DFF763F2E97FF5F
:1017E00009C090958095709561957F4F8F4F9F4F61
:1017F000F0683F2E2AE030E0A3010E94240D882EDD
:10180000861845C0853731F4232D2F7EB22E2AE06D
:1018100030E025C0932D997FB92E8F36C1F018F492
:10182000883579F0B5C0803719F0883721F0B0C01D
:10183000E92FE061BE2EB4FE0DC0FB2DF460BF2E7B
:1018400009C034FE0AC0292F2660B22E06C028E047
:1018500030E005C020E130E002C020E132E0F801D4
:10186000B7FE07C060817181828193810C5F1F4F39
:1018700006C06081718180E090E00E5F1F4FA30180
:101880000E94240D882E8618FB2DFF773F2E36FEF2
:101890000DC0232D2E7FA22E891458F434FE0BC0C8
:1018A00032FC09C0832D8E7EA82E05C0B82CA32C37
:1018B00003C0B82C01C0B92CA4FE0FC0FE01E80D76
:1018C000F11D8081803321F49A2D997EA92E09C0C3
:1018D000A2FE06C0B394B39404C08A2D867809F0A2
:1018E000B394A3FC11C0A0FE06C0B21488F4280C67
:1018F000922C9B180EC0B21460F4B60180E290E006
:101900000E94E80CB394F7CFB21418F42B1802C05D
:10191000982C212CA4FE10C0B60180E390E00E9418
:10192000E80CA2FE17C0A1FC03C088E790E002C04B
:1019300088E590E0B6010CC08A2D867859F0A1FEAA
:1019400002C08BE201C080E2A7FC8DE2B60190E00C
:101950000E94E80C891438F4B60180E390E00E94FC
:10196000E80C9A94F7CF8A94F301E80DF11D808179
:10197000B60190E00E94E80C8110F5CF222009F416
:1019800042CEB60180E290E00E94E80C2A94F6CFA5
:10199000F6018681978102C08FEF9FEF2B96E2E1DF
:1019A0000C949E0DFC010590615070400110D8F719
:1019B000809590958E0F9F1F0895FC016150704097
:1019C00001900110D8F7809590958E0F9F1F089574
:1019D0000F931F93CF93DF93FB01238121FD03C05E
:1019E0008FEF9FEF2CC022FF16C0468157812481C4
:1019F00035814217530744F4A081B1819D012F5FC7
:101A00003F4F318320838C93268137812F5F3F4F57
:101A10003783268314C08B01EC01FB010084F18520
:101A2000E02D0995892BE1F6D80116968D919C91B0
:101A30001797019617969C938E931697CE01DF9178
:101A4000CF911F910F910895FA01AA27283051F1E3
:101A5000203181F1E8946F936E7F6E5F7F4F8F4FDF
:101A60009F4FAF4FB1E03ED0B4E03CD0670F781F3E
:101A7000891F9A1FA11D680F791F8A1F911DA11D23
:101A80006A0F711D811D911DA11D20D009F468945C
:101A90003F912AE0269F11243019305D3193DEF604
:101AA000CF010895462F4770405D4193B3E00FD0BA
:101AB000C9F7F6CF462F4F70405D4A3318F0495DA5
:101AC00031FD4052419302D0A9F7EACFB4E0A69588
:101AD0009795879577956795BA95C9F700976105AA
:101AE000710508959B01AC010A2E06945795479500
:101AF00037952795BA95C9F7620F731F841F951FF5
:101B0000A01D08952F923F924F925F926F927F9205
:101B10008F929F92AF92BF92CF92DF92EF92FF92FD
:101B20000F931F93CF93DF93CDB7DEB7CA1BDB0BA9
:101B30000FB6F894DEBF0FBECDBF09942A8839884E
:101B400048885F846E847D848C849B84AA84B98455
:101B5000C884DF80EE80FD800C811B81AA81B98161
:101B6000CE0FD11D0FB6F894DEBF0FBECDBFED0175
:061B70000895F894FFCF78
:101B7600901FFFFFFF000A0164C80A0164C80A013A
:101B860064BC4822221000400A49324320496E694B
:101B96007469616C697A65640A00256C6400307842
:101BA600256C6F00256C58000A4164647265737376
:101BB600207265676973746572696E67206661690C
:101BC6006C65640A0053657269616C20496E6963CD
:101BD6006961646120402000444854323220696EB5
:101BE60069636961646F0054656D706572617475CF
:101BF60072613A20004300556D69646164653A205C
:101C0600004552524F204E4F204448543232005322
:101C1600504920696E69636961646F0057495A3596
:101C260032303020696E69636961646F00504F53CA
:101C360054202F4150492F6461646F732F72656180
:101C46006C2F356135663466353938306234313655
:101C56003F76616C6F723D0025642E256400204836
:101C66005454502F312E310D0A00486F73743A20A8
:101C760031302E312E3130302E3138380D0A0055A4
:101C86007365722D4167656E743A2043656E747292
:101C9600616C53656E736F7265730D0A0D0A006F82
:101CA6006B00504F5354202F4150492F6461646F8D
:101CB600732F7265616C2F35613566353439383668
:101CC60031666561373F76616C6F723D00457272B1
:101CD6006F20646520636F6E6578C3A36F20656DA2
:0C1CE600206578656375C3A7C3A36F0079
:00000001FF
